:020000040000FA
:10000000FE2F00308A000408840A8207003460341E
:060010000934243404341D
:100A6800F0008312031385100511851170088400A6
:100A7800831380010800F6004C25C92576088400F8
:100A880083138001800A83120313851462250800EA
:100A98008312031312153C3095000230F2004530E2
:100AA800F100A930F000F00B572DF10B572DF20B88
:100AB800572D5E2D83120313121108000330F20024
:100AC8008A30F1005530F000F00B682DF10B682DDD
:100AD800F20B682D6F2D8312031312150230F200EA
:100AE8004530F100A930F000F00B782DF10B782D8E
:100AF800F20B782D7F2D8312031312110800F101D8
:100B0800F201831203130614D330F0008B2DF00B7F
:100B18008A2D8E2D8F2D831203130610FC30F300BF
:100B28004930F400C730F000992DF00B982D9C2D1A
:100B38009D2D1830F3070318F40AFC30F4077408E5
:100B4800803AFF0083307F02031DAC2DE83073022A
:100B58000318AF2DB02D962D1330F000F00BB22DE9
:100B6800B52D0130F1070318F20A0030F2077208B8
:100B7800803AFF0080307F02031DC42D643071026B
:100B8800031CC72DC82D852D0800F201F30183121F
:100B9800031306140430F1001C30F000F00BD22DC2
:100BA800F10BD22D0000831203130610C030F4009D
:100BB8004430F500C730F000E12DF00BE02DE42DB6
:100BC800E52D1830F4070318F50AFC30F507750809
:100BD800803AFF0083307F02031DF42DE830740251
:100BE8000318F72DF82DDE2D8530F000F00BFA2DC7
:100BF8000130F2070318F30A0030F3077308803A4C
:100C0800FF0080307F02031D0B2E64307202031C2C
:100C18000E2E0F2ECB2D0800F601F31F142E152EC5
:100C28001C2EF209F309F20A0319F30AF601F60A6F
:100C3800F11F1F2E202E252EF009F109F00A0319A5
:100C4800F10A7008710403192A2E2B2E5A2EF50169
:100C5800F50A392E01300310F00DF10DFF3E031D8A
:100C68002F2E0130F4007408F507F11F3C2E3D2E9D
:100C78002E2E71087302031D432E70087202031C86
:100C8800462E472E4D2E7008F2027108031CF303FE
:100C9800F30201300310F10CF00CFF3E031D4E2E41
:100CA8000130F502031D592E5A2E3D2E76080319E0
:100CB8005E2E5F2E642EF209F309F20A0319F30A75
:100CC8007308F1007208F000080083120313BA01D8
:100CD80007309F0497151715F930831603139200F0
:100CE80083120313950197121712921012101215FE
:100CF80083160313861181130610861185100511BA
:100D080085110616861483120313851005118511A3
:100D1800A801A901AE01AF01AA01AB01D030B00012
:100D28000730B100B601B701031083120313061E82
:100D38000314003003180130F700F8017708B800F1
:100D48007808B900A6012E082F04031DAC2EAD2E7D
:100D5800B52E380839040319B22EB32EB52EA601C4
:100D6800A60A2608F700F8017708A0007808A1006D
:100D7800A7012E082F040319C22EC32ECB2E380824
:100D88003904031DC82EC92ECB2EA701A70A270890
:100D9800F700F8017708A2007808A300B201B301B0
:100DA800B401B501200821040319DB2EDC2EE32E43
:100DB800A801A9010130AA000030AB00192F2208B0
:100DC80023040319E82EE92EF62E2A082B0403190A
:100DD800EE2EEF2E192F0130B2000030B300AA0119
:100DE800AB01192F380839040319FB2EFC2E192FD3
:100DF8000130A8070318A90A0030A9072908803A72
:100E0800FF0080307F02031D0B2F33302802031CA4
:100E18000E2F0F2F192F013083120313B400003047
:100E2800B500AA01AB01A801A9018312031339086F
:100E3800AF003808AE0002303A060319242F252FD8
:100E48002E2F1A30F800F830F700F70B292FF80B7F
:100E5800292F0000831203133308AD003208AC00B9
:100E68000310861C0314003003180130F700F80142
:100E78007708A4007808A500E62F2C082D0403198C
:100E8800462F472F4A2F3A303F25982E34083504ED
:100E980003194F2F502FFC2F85150330F7007708C3
:100EA800BA00962E2C082D0403195B2F5C2F982E60
:100EB8004C250230F700770883120313BA00051592
:100EC8006225982E2408250403196B2F6C2F982E61
:100ED80085150E30F9003130F8009430F700F70B23
:100EE800732FF80B732FF90B732F000083253A30FB
:100EF8003425982E340835040319832F842F862F20
:100F08003A303425831203133208330403198D2F22
:100F18008E2FA32F7030F0001730F1003008E83E14
:100F2800F20031080318013E033EF3001026710851
:100F380083120313B1007008B000B601B701143072
:100F4800B6070318B70A0030B707E830F0000330D7
:100F5800F1003708F3003608F20010267108803ACD
:100F6800FF0082307F02031DBB2FEE307002031892
:100F7800BE2FBF2FD32F831203133708803AF700F1
:100F88003108803A7702031DCB2F30083602031848
:100F9800CE2FCF2FD32F831203138514D62F83126E
:100FA800031385107030F0001730F1003708F30094
:100FB8003608F2001026710883120313B700700870
:100FC800B600982E3A08F700F8017808003A031995
:100FD800EE2F982E7708003A0319412F013A03198A
:100FE800562F033A0319662F013A03197E2F982EBC
:080FF800982E00288301692EE8
:02400E00113F60
:00000001FF
